{
  "transactions": [
    {
      "hash": "0x21979ad54dac243d69c8a49a62f2d2e8d12570e89165640d98c96e00d89730b1",
      "transactionType": "CREATE",
      "contractName": "Counter",
      "contractAddress": "0x6fa4e1905026a31b5f627063c8c545a917a27494",
      "function": null,
      "arguments": null,
      "transaction": {
        "from": "0xaff4d6565c20e0bb7fede67d645a3dce729743b7",
        "to": null,
        "gas": "0x21de9",
        "value": "0x0",
        "input": "0x6080604052348015600f57600080fd5b5060f78061001e6000396000f3fe6080604052348015600f57600080fd5b5060043610603c5760003560e01c80633fb5c1cb1460415780638381f58a146053578063d09de08a14606d575b600080fd5b6051604c3660046083565b600055565b005b605b60005481565b60405190815260200160405180910390f35b6051600080549080607c83609b565b9190505550565b600060208284031215609457600080fd5b5035919050565b60006001820160ba57634e487b7160e01b600052601160045260246000fd5b506001019056fea2646970667358221220091e48831e9eee32d4571d6291233a4fdaaa34b7dced8770f36f5368be825c5264736f6c63430008190033",
        "nonce": "0x0",
        "chainId": "0xaa36a7",
        "accessList": null,
        "type": null
      },
      "additionalContracts": [],
      "isFixedGasLimit": false
    },
    {
      "hash": "0xcdd9a8ea22bde05ff6965000aba0c7730d9588176bd5a736325af4755262f97f",
      "transactionType": "CALL",
      "contractName": "Counter",
      "contractAddress": "0x6fa4e1905026a31b5f627063c8c545a917a27494",
      "function": "setNumber(uint256)",
      "arguments": [
        "17042024"
      ],
      "transaction": {
        "from": "0xaff4d6565c20e0bb7fede67d645a3dce729743b7",
        "to": "0x6fa4e1905026a31b5f627063c8c545a917a27494",
        "gas": "0xf8ae",
        "value": "0x0",
        "input": "0x3fb5c1cb0000000000000000000000000000000000000000000000000000000001040a68",
        "nonce": "0x1",
        "chainId": "0xaa36a7",
        "accessList": null,
        "type": null
      },
      "additionalContracts": [],
      "isFixedGasLimit": false
    },
    {
      "hash": "0xdcbe2779d58a2d4032f2113d6011cc84086c4cec47730b1136417bcb435b0c07",
      "transactionType": "CALL",
      "contractName": "Counter",
      "contractAddress": "0x6fa4e1905026a31b5f627063c8c545a917a27494",
      "function": "increment()",
      "arguments": [],
      "transaction": {
        "from": "0xaff4d6565c20e0bb7fede67d645a3dce729743b7",
        "to": "0x6fa4e1905026a31b5f627063c8c545a917a27494",
        "gas": "0x8dec",
        "value": "0x0",
        "input": "0xd09de08a",
        "nonce": "0x2",
        "chainId": "0xaa36a7",
        "accessList": null,
        "type": null
      },
      "additionalContracts": [],
      "isFixedGasLimit": false
    }
  ],
  "receipts": [
    {
      "status": "0x1",
      "cumulativeGasUsed": "0xb0387e",
      "logs": [],
      "logsBloom": "0x00000000000000000000000000000000000000000000000000000000000000000000000000000000000000000000000000000000000000000000000000000000000000000000000000000000000000000000000000000000000000000000000000000000000000000000000000000000000000000000000000000000000000000000000000000000000000000000000000000000000000000000000000000000000000000000000000000000000000000000000000000000000000000000000000000000000000000000000000000000000000000000000000000000000000000000000000000000000000000000000000000000000000000000000000000000",
      "type": "0x2",
      "transactionHash": "0x21979ad54dac243d69c8a49a62f2d2e8d12570e89165640d98c96e00d89730b1",
      "transactionIndex": "0x3a",
      "blockHash": "0x3d72c29e09770ce37be451652ff56dc323d2c78dc27825d7ebd86176451c18a8",
      "blockNumber": "0x574504",
      "gasUsed": "0x1a0ed",
      "effectiveGasPrice": "0x3553a28c",
      "from": "0xaff4d6565c20e0bb7fede67d645a3dce729743b7",
      "to": null,
      "contractAddress": "0x6fa4e1905026a31b5f627063c8c545a917a27494"
    },
    {
      "status": "0x1",
      "cumulativeGasUsed": "0xb0e288",
      "logs": [],
      "logsBloom": "0x00000000000000000000000000000000000000000000000000000000000000000000000000000000000000000000000000000000000000000000000000000000000000000000000000000000000000000000000000000000000000000000000000000000000000000000000000000000000000000000000000000000000000000000000000000000000000000000000000000000000000000000000000000000000000000000000000000000000000000000000000000000000000000000000000000000000000000000000000000000000000000000000000000000000000000000000000000000000000000000000000000000000000000000000000000000",
      "type": "0x2",
      "transactionHash": "0xcdd9a8ea22bde05ff6965000aba0c7730d9588176bd5a736325af4755262f97f",
      "transactionIndex": "0x3b",
      "blockHash": "0x3d72c29e09770ce37be451652ff56dc323d2c78dc27825d7ebd86176451c18a8",
      "blockNumber": "0x574504",
      "gasUsed": "0xaa0a",
      "effectiveGasPrice": "0x3553a28c",
      "from": "0xaff4d6565c20e0bb7fede67d645a3dce729743b7",
      "to": "0x6fa4e1905026a31b5f627063c8c545a917a27494",
      "contractAddress": null
    },
    {
      "status": "0x1",
      "cumulativeGasUsed": "0xb14948",
      "logs": [],
      "logsBloom": "0x00000000000000000000000000000000000000000000000000000000000000000000000000000000000000000000000000000000000000000000000000000000000000000000000000000000000000000000000000000000000000000000000000000000000000000000000000000000000000000000000000000000000000000000000000000000000000000000000000000000000000000000000000000000000000000000000000000000000000000000000000000000000000000000000000000000000000000000000000000000000000000000000000000000000000000000000000000000000000000000000000000000000000000000000000000000",
      "type": "0x2",
      "transactionHash": "0xdcbe2779d58a2d4032f2113d6011cc84086c4cec47730b1136417bcb435b0c07",
      "transactionIndex": "0x3c",
      "blockHash": "0x3d72c29e09770ce37be451652ff56dc323d2c78dc27825d7ebd86176451c18a8",
      "blockNumber": "0x574504",
      "gasUsed": "0x66c0",
      "effectiveGasPrice": "0x3553a28c",
      "from": "0xaff4d6565c20e0bb7fede67d645a3dce729743b7",
      "to": "0x6fa4e1905026a31b5f627063c8c545a917a27494",
      "contractAddress": null
    }
  ],
  "libraries": [],
  "pending": [],
  "returns": {},
  "timestamp": 1713375040,
  "chain": 11155111,
  "commit": "b1d72e9"
}